:1000000012C02CC02BC02AC029C028C027C026C0BF
:1000100025C024C023C022C021C020C01FC01EC0D4
:100020001DC01CC01BC011241FBECFE5D4E0DEBF25
:10003000CDBF10E0A0E6B0E0EEE4F6E002C005902F
:100040000D92A637B107D9F720E0A6E7B0E001C0CE
:100050001D92AE37B207E1F7B2D1F7C2D1CFBC01E2
:1000600080E090E001D220E030E04FE753E462D23C
:1000700020E030E040E85AE35DD2CAD1CB010895D8
:100080008D37910530F0E1E0883C910518F0E0E013
:1000900001C0E2E020E030E06115710581F443E544
:1000A0004A95F1F7000043E54A95F1F70000233344
:1000B000310508F444C012BA80E090E00895C29877
:1000C00062BB43E54A95F1F70000B19903C081E0B6
:1000D00090E00895C29A4091760042BB21353105E7
:1000E00048F442B350E048175907E8F442B34D5F73
:1000F0004E1B18C02535310530F442B34B3098F013
:1001000042B34A500FC02B3F310568F04091740054
:10011000509175002417350730F442B3463018F07B
:1001200042B3425042BBB19BD2CF43E54A95F1F76F
:10013000000042B350E050937700409376002F5F69
:100140003F4F253F41E0340709F0A6CFB4CFCF930E
:10015000DF93EC01609172007091730091DF019761
:1001600009F4D1C06091700070917100CE0188DFF8
:10017000019709F4C8C060916E0070916F00CE01C4
:100180007FDF019709F4BFC060916C0070916D0032
:10019000CE0176DF019709F4B6C060916A007091D4
:1001A0006B00CE016DDF019709F4ADC060916A006C
:1001B00070916B00CE0164DF019709F4A4C060E088
:1001C00070E0CE015DDF019709F49DC060916A0087
:1001D00070916B00CE0154DF019709F494C06091D7
:1001E0006A0070916B00CE014BDF019709F48BC060
:1001F0006091660070916700CE0142DF019709F4BB
:1002000082C060E070E0CE013BDF019709F47BC063
:100210006091660070916700CE0132DF019709F4AA
:1002200072C060E070E0CE012BDF019709F46BC073
:100230006091660070916700CE0122DF019709F49A
:1002400062C060E070E0CE011BDF019709F45BC083
:100250006091660070916700CE0112DF019709F48A
:1002600052C060916A0070916B00CE0109DF019766
:1002700009F449C060916A0070916B00CE0100DF03
:10028000019709F440C06091660070916700CE014B
:10029000F7DE0197C1F160E070E0CE01F1DE019779
:1002A00091F16091660070916700CE01E9DE0197DF
:1002B00051F160E070E0CE01E3DE019721F1609141
:1002C000660070916700CE01DBDE0197E1F060E02F
:1002D00070E0CE01D5DE0197B1F0609166007091BB
:1002E0006700CE01CDDE019771F060916A007091D8
:1002F0006B00CE01C5DE019731F060916A0070910C
:100300006B00CE01BDDE12BADF91CF91089520E0DF
:1003100030E0C29862BBE7ECF0E03197F1F700C043
:100320000000C29A4091760042BB2135310540F46D
:1003300042B350E048175907E0F442B34E5F18C08B
:100340002535310530F442B34B3098F042B34A5072
:100350000FC02B3F310568F040917400509175003B
:100360002417350730F442B3463018F042B34250F8
:1003700042BBE7ECF0E03197F1F700C0000042B378
:1003800050E050937700409376002F5F3F4F253F1A
:10039000F1E03F0709F0BDCF12BA089517B886B152
:1003A000876886B9369A0895369A3699FECF24B171
:1003B00085B190E0982F8827820F911D089517B876
:1003C000A09884B38E6184BB8FEF81BB8CEF87BB19
:1003D00012BAE4DFAA98A998AC98AB9A12BAB09B6B
:1003E00007C0609160007091610088EC90E08FDF41
:1003F000B19BF4CF2FEB87E299E0215080409040F1
:10040000E1F700C00000D0DF2ADEA1DE12BAF0CF93
:1004100070D088F09F5790F0B92F9927B751A0F06E
:10042000D1F0660F771F881F991F1AF0BA95C9F788
:1004300012C0B13081F077D0B1E0089574C0672F59
:10044000782F8827B85F39F0B93FCCF38695779538
:100450006795B395D9F73EF4909580957095619521
:100460007F4F8F4F9F4F0895E89409C097FB3EF44C
:1004700090958095709561957F4F8F4F9F4F9923F1
:10048000A9F0F92F96E9BB279395F695879577956F
:100490006795B795F111F8CFFAF4BB0F11F460FF2F
:1004A0001BC06F5F7F4F8F4F9F4F16C0882311F087
:1004B00096E911C0772321F09EE8872F762F05C09B
:1004C000662371F096E8862F70E060E02AF09A9536
:1004D000660F771F881FDAF7880F9695879597F92B
:1004E000089557FD9058440F551F59F05F3F71F024
:1004F0004795880F97FB991F61F09F3F79F087958B
:100500000895121613061406551FF2CF4695F1DF13
:1005100008C0161617061806991FF1CF86957105A3
:10052000610508940895E894BB2766277727CB01D7
:1005300097F908950BD078C069D028F06ED018F0E4
:10054000952309F05AC05FC01124EECFCADFA0F393
:10055000959FD1F3950F50E0551F629FF001729F58
:10056000BB27F00DB11D639FAA27F00DB11DAA1F77
:10057000649F6627B00DA11D661F829F2227B00DC4
:10058000A11D621F739FB00DA11D621F839FA00D4F
:10059000611D221F749F3327A00D611D231F849F9F
:1005A000600D211D822F762F6A2F11249F575040F6
:1005B0008AF0E1F088234AF0EE0FFF1FBB1F661F91
:1005C000771F881F91505040A9F79E3F510570F04A
:1005D00014C0AACF5F3FECF3983EDCF38695779585
:1005E0006795B795F795E7959F5FC1F7FE2B880F45
:1005F000911D9695879597F9089597F99F6780E8DB
:1006000070E060E008959FEF80EC089500240A9464
:100610001616170618060906089500240A941216DD
:100620001306140605060895092E0394000C11F410
:10063000882352F0BB0F40F4BF2B11F460FF04C0BD
:0E0640006F5F7F4F8F4F9F4F0895F894FFCF4D
:10064E0053004E0049004500420040003A0037007A
:06065E0031002B00F40145
:00000001FF
